{
  "contractName": "Voting",
  "abi": [
    {
      "inputs": [],
      "stateMutability": "nonpayable",
      "type": "constructor"
    },
    {
      "anonymous": false,
      "inputs": [],
      "name": "NewMovie",
      "type": "event"
    },
    {
      "anonymous": false,
      "inputs": [],
      "name": "Voted",
      "type": "event"
    },
    {
      "inputs": [],
      "name": "MAX_VOTES_PER_VOTER",
      "outputs": [
        {
          "internalType": "uint256",
          "name": "",
          "type": "uint256"
        }
      ],
      "stateMutability": "view",
      "type": "function",
      "constant": true
    },
    {
      "inputs": [
        {
          "internalType": "uint256",
          "name": "",
          "type": "uint256"
        }
      ],
      "name": "movies",
      "outputs": [
        {
          "internalType": "uint256",
          "name": "id",
          "type": "uint256"
        },
        {
          "internalType": "string",
          "name": "title",
          "type": "string"
        },
        {
          "internalType": "string",
          "name": "cover",
          "type": "string"
        },
        {
          "internalType": "uint256",
          "name": "votes",
          "type": "uint256"
        }
      ],
      "stateMutability": "view",
      "type": "function",
      "constant": true
    },
    {
      "inputs": [],
      "name": "moviesCount",
      "outputs": [
        {
          "internalType": "uint256",
          "name": "",
          "type": "uint256"
        }
      ],
      "stateMutability": "view",
      "type": "function",
      "constant": true
    },
    {
      "inputs": [
        {
          "internalType": "address",
          "name": "",
          "type": "address"
        }
      ],
      "name": "votes",
      "outputs": [
        {
          "internalType": "uint256",
          "name": "",
          "type": "uint256"
        }
      ],
      "stateMutability": "view",
      "type": "function",
      "constant": true
    },
    {
      "inputs": [
        {
          "internalType": "uint256",
          "name": "_movieID",
          "type": "uint256"
        }
      ],
      "name": "vote",
      "outputs": [],
      "stateMutability": "nonpayable",
      "type": "function"
    },
    {
      "inputs": [
        {
          "internalType": "string",
          "name": "_title",
          "type": "string"
        },
        {
          "internalType": "string",
          "name": "_cover",
          "type": "string"
        }
      ],
      "name": "addMovie",
      "outputs": [],
      "stateMutability": "nonpayable",
      "type": "function"
    }
  ],
  "bytecode": "0x608060405234801561001057600080fd5b506000600181905550610b52806100286000396000f3fe608060405234801561001057600080fd5b50600436106100625760003560e01c80630121b93f1461006757806308bbbc9c14610083578063404ebf6c146100a1578063416cef3e146100d4578063967a8be4146100f2578063d8bff5a51461010e575b600080fd5b610081600480360381019061007c91906105f2565b61013e565b005b61008b6102c0565b604051610098919061062e565b60405180910390f35b6100bb60048036038101906100b691906105f2565b6102c6565b6040516100cb94939291906106e2565b60405180910390f35b6100dc610406565b6040516100e9919061062e565b60405180910390f35b61010c6004803603810190610107919061086a565b61040b565b005b61012860048036038101906101239190610940565b6104ed565b604051610135919061062e565b60405180910390f35b6064600260003373ffffffffffffffffffffffffffffffffffffffff1673ffffffffffffffffffffffffffffffffffffffff16815260200190815260200160002054106101c0576040517f08c379a00000000000000000000000000000000000000000000000000000000081526004016101b7906109b9565b60405180910390fd5b6000811180156101d257506001548111155b610211576040517f08c379a000000000000000000000000000000000000000000000000000000000815260040161020890610a25565b60405180910390fd5b600260003373ffffffffffffffffffffffffffffffffffffffff1673ffffffffffffffffffffffffffffffffffffffff168152602001908152602001600020600081548092919061026190610a74565b9190505550600080828152602001908152602001600020600301600081548092919061028c90610a74565b91905055507f650d798f3862ff92822acb5de11a760351b122df0cf4e24ef80b0a7ff82e0eb960405160405180910390a150565b60015481565b60006020528060005260406000206000915090508060000154908060010180546102ef90610aeb565b80601f016020809104026020016040519081016040528092919081815260200182805461031b90610aeb565b80156103685780601f1061033d57610100808354040283529160200191610368565b820191906000526020600020905b81548152906001019060200180831161034b57829003601f168201915b50505050509080600201805461037d90610aeb565b80601f01602080910402602001604051908101604052809291908181526020018280546103a990610aeb565b80156103f65780601f106103cb576101008083540402835291602001916103f6565b820191906000526020600020905b8154815290600101906020018083116103d957829003601f168201915b5050505050908060030154905084565b606481565b6001600081548092919061041e90610a74565b919050555060006040518060800160405280600154815260200184815260200183815260200160008152509050806000806001548152602001908152602001600020600082015181600001556020820151816001019080519060200190610486929190610505565b5060408201518160020190805190602001906104a3929190610505565b50606082015181600301559050507f7d86abd6b4195402762acf6a4927ce5cc913d7249e3668f8f3924983b210a3e060405160405180910390a16104e860015461013e565b505050565b60026020528060005260406000206000915090505481565b82805461051190610aeb565b90600052602060002090601f016020900481019282610533576000855561057a565b82601f1061054c57805160ff191683800117855561057a565b8280016001018555821561057a579182015b8281111561057957825182559160200191906001019061055e565b5b509050610587919061058b565b5090565b5b808211156105a457600081600090555060010161058c565b5090565b6000604051905090565b600080fd5b600080fd5b6000819050919050565b6105cf816105bc565b81146105da57600080fd5b50565b6000813590506105ec816105c6565b92915050565b600060208284031215610608576106076105b2565b5b6000610616848285016105dd565b91505092915050565b610628816105bc565b82525050565b6000602082019050610643600083018461061f565b92915050565b600081519050919050565b600082825260208201905092915050565b60005b83811015610683578082015181840152602081019050610668565b83811115610692576000848401525b50505050565b6000601f19601f8301169050919050565b60006106b482610649565b6106be8185610654565b93506106ce818560208601610665565b6106d781610698565b840191505092915050565b60006080820190506106f7600083018761061f565b818103602083015261070981866106a9565b9050818103604083015261071d81856106a9565b905061072c606083018461061f565b95945050505050565b600080fd5b600080fd5b7f4e487b7100000000000000000000000000000000000000000000000000000000600052604160045260246000fd5b61077782610698565b810181811067ffffffffffffffff821117156107965761079561073f565b5b80604052505050565b60006107a96105a8565b90506107b5828261076e565b919050565b600067ffffffffffffffff8211156107d5576107d461073f565b5b6107de82610698565b9050602081019050919050565b82818337600083830152505050565b600061080d610808846107ba565b61079f565b9050828152602081018484840111156108295761082861073a565b5b6108348482856107eb565b509392505050565b600082601f83011261085157610850610735565b5b81356108618482602086016107fa565b91505092915050565b60008060408385031215610881576108806105b2565b5b600083013567ffffffffffffffff81111561089f5761089e6105b7565b5b6108ab8582860161083c565b925050602083013567ffffffffffffffff8111156108cc576108cb6105b7565b5b6108d88582860161083c565b9150509250929050565b600073ffffffffffffffffffffffffffffffffffffffff82169050919050565b600061090d826108e2565b9050919050565b61091d81610902565b811461092857600080fd5b50565b60008135905061093a81610914565b92915050565b600060208284031215610956576109556105b2565b5b60006109648482850161092b565b91505092915050565b7f566f74657220686173206e6f20766f746573206c6566742e0000000000000000600082015250565b60006109a3601883610654565b91506109ae8261096d565b602082019050919050565b600060208201905081810360008301526109d281610996565b9050919050565b7f4d6f766965204944206973206f7574206f662072616e67652e00000000000000600082015250565b6000610a0f601983610654565b9150610a1a826109d9565b602082019050919050565b60006020820190508181036000830152610a3e81610a02565b9050919050565b7f4e487b7100000000000000000000000000000000000000000000000000000000600052601160045260246000fd5b6000610a7f826105bc565b91507fffffffffffffffffffffffffffffffffffffffffffffffffffffffffffffffff8203610ab157610ab0610a45565b5b600182019050919050565b7f4e487b7100000000000000000000000000000000000000000000000000000000600052602260045260246000fd5b60006002820490506001821680610b0357607f821691505b602082108103610b1657610b15610abc565b5b5091905056fea264697066735822122007694033474449e3514adf2d05f6fa97f1767b11ead6c940d663f09aff5d202964736f6c634300080e0033",
  "immutableReferences": {},
  "source": "// SPDX-License-Identifier: MIT\r\npragma solidity >=0.4.22 <0.9.0;\r\n\r\n// [...]\r\n\r\ncontract Voting {\r\n  uint public constant MAX_VOTES_PER_VOTER = 100;\r\n\r\n  struct Movie {\r\n    uint id;\r\n    string title;\r\n    string cover;\r\n    uint votes;\r\n  }\r\n\r\n  event Voted ();\r\n  event NewMovie ();\r\n\r\n  mapping(uint => Movie) public movies;\r\n  uint public moviesCount;\r\n\r\n  mapping(address => uint) public votes;\r\n\r\n  constructor() {\r\n    moviesCount = 0;\r\n  }\r\n\r\n  function vote(uint _movieID) public {\r\n    require(votes[msg.sender] < MAX_VOTES_PER_VOTER, \"Voter has no votes left.\");\r\n    require(_movieID > 0 && _movieID <= moviesCount, \"Movie ID is out of range.\");\r\n\r\n    votes[msg.sender]++;\r\n    movies[_movieID].votes++;\r\n\r\n    emit Voted();\r\n  }\r\n\r\n  function addMovie(string memory _title, string memory _cover) public {\r\n    moviesCount++;\r\n\r\n    Movie memory movie = Movie(moviesCount, _title, _cover, 0);\r\n    movies[moviesCount] = movie;\r\n\r\n    emit NewMovie();\r\n    vote(moviesCount);\r\n  }\r\n}\r\n",
  "sourcePath": "C:\\Users\\malek\\Desktop\\Blockchain Voting System\\polling-system-final\\contracts\\Voting.sol",
  "compiler": {
    "name": "solc",
    "version": "0.8.14+commit.80d49f37.Emscripten.clang"
  },
  "schemaVersion": "3.4.7",
  "updatedAt": "2022-06-26T17:52:10.199Z",
  "networkType": "ethereum",
  "devdoc": {
    "kind": "dev",
    "methods": {},
    "version": 1
  },
  "userdoc": {
    "kind": "user",
    "methods": {},
    "version": 1
  }
}